{
  "contractName": "Users",
  "abi": [
    {
      "constant": true,
      "inputs": [
        {
          "name": "",
          "type": "uint256"
        }
      ],
      "name": "patients",
      "outputs": [
        {
          "name": "patientid",
          "type": "uint256"
        },
        {
          "name": "patientAddress",
          "type": "address"
        },
        {
          "name": "name",
          "type": "string"
        },
        {
          "name": "age",
          "type": "uint256"
        },
        {
          "name": "contact",
          "type": "uint256"
        },
        {
          "name": "userAddress",
          "type": "string"
        },
        {
          "name": "prescriptionCount",
          "type": "uint256"
        },
        {
          "name": "receiptCount",
          "type": "uint256"
        },
        {
          "name": "recordCount",
          "type": "uint256"
        }
      ],
      "payable": false,
      "stateMutability": "view",
      "type": "function",
      "signature": "0x93119a83"
    },
    {
      "constant": true,
      "inputs": [],
      "name": "patientCount",
      "outputs": [
        {
          "name": "",
          "type": "uint256"
        }
      ],
      "payable": false,
      "stateMutability": "view",
      "type": "function",
      "signature": "0xa0303c41"
    },
    {
      "inputs": [],
      "payable": false,
      "stateMutability": "nonpayable",
      "type": "constructor",
      "signature": "constructor"
    },
    {
      "anonymous": false,
      "inputs": [
        {
          "indexed": false,
          "name": "patientid",
          "type": "uint256"
        },
        {
          "indexed": false,
          "name": "patientAddress",
          "type": "address"
        },
        {
          "indexed": false,
          "name": "name",
          "type": "string"
        },
        {
          "indexed": false,
          "name": "age",
          "type": "uint256"
        },
        {
          "indexed": false,
          "name": "contact",
          "type": "uint256"
        },
        {
          "indexed": false,
          "name": "userAddress",
          "type": "string"
        }
      ],
      "name": "addPatient",
      "type": "event",
      "signature": "0x0899da80139b6d07ab8b9f20b8f98e822572db9a7b10d3e15aacab3a311aeb1d"
    },
    {
      "anonymous": false,
      "inputs": [
        {
          "indexed": false,
          "name": "prescriptionid",
          "type": "uint256"
        },
        {
          "indexed": false,
          "name": "healthCareAddress",
          "type": "address"
        },
        {
          "indexed": false,
          "name": "timestamp",
          "type": "uint256"
        }
      ],
      "name": "addPrescription",
      "type": "event",
      "signature": "0xc11fae24859cbc2481502dd9c71ce4bc6505c8fe73f089660392ebf3324e86a5"
    },
    {
      "anonymous": false,
      "inputs": [
        {
          "indexed": false,
          "name": "recordid",
          "type": "uint256"
        },
        {
          "indexed": false,
          "name": "disease",
          "type": "string"
        },
        {
          "indexed": false,
          "name": "chainAddress",
          "type": "address"
        },
        {
          "indexed": false,
          "name": "timestamp",
          "type": "uint256"
        }
      ],
      "name": "addRecord",
      "type": "event",
      "signature": "0x1b62aae6632db7db9956947645f2c84d40b501a9cbf60135aa79aba17a2264bb"
    },
    {
      "anonymous": false,
      "inputs": [
        {
          "indexed": false,
          "name": "receiptid",
          "type": "uint256"
        },
        {
          "indexed": false,
          "name": "chainAddress",
          "type": "address"
        },
        {
          "indexed": false,
          "name": "timestamp",
          "type": "uint256"
        },
        {
          "indexed": false,
          "name": "totalcost",
          "type": "uint256"
        }
      ],
      "name": "addReceipt",
      "type": "event",
      "signature": "0x57912b28cf36b4ab0e44aeda4033093196341bcf4c992d749709baf5f808fc8c"
    },
    {
      "anonymous": false,
      "inputs": [
        {
          "indexed": false,
          "name": "drugid",
          "type": "uint256"
        },
        {
          "indexed": false,
          "name": "drugname",
          "type": "string"
        },
        {
          "indexed": false,
          "name": "count",
          "type": "uint256"
        }
      ],
      "name": "addDrug",
      "type": "event",
      "signature": "0x0296f48c9112e3cba08e898e71aa376d1ad1a9ad95a0012b940eae9b624d4be5"
    },
    {
      "constant": false,
      "inputs": [
        {
          "name": "_patientAddress",
          "type": "address"
        },
        {
          "name": "_name",
          "type": "string"
        },
        {
          "name": "_age",
          "type": "uint256"
        },
        {
          "name": "_contact",
          "type": "uint256"
        },
        {
          "name": "_userAddress",
          "type": "string"
        }
      ],
      "name": "setPatient",
      "outputs": [],
      "payable": false,
      "stateMutability": "nonpayable",
      "type": "function",
      "signature": "0xc3d0f01f"
    },
    {
      "constant": true,
      "inputs": [],
      "name": "getPatientCount",
      "outputs": [
        {
          "name": "",
          "type": "uint256"
        }
      ],
      "payable": false,
      "stateMutability": "view",
      "type": "function",
      "signature": "0xc190665b"
    },
    {
      "constant": true,
      "inputs": [
        {
          "name": "_id",
          "type": "uint256"
        }
      ],
      "name": "getPatient",
      "outputs": [
        {
          "name": "",
          "type": "address"
        },
        {
          "name": "",
          "type": "string"
        },
        {
          "name": "",
          "type": "uint256"
        },
        {
          "name": "",
          "type": "uint256"
        },
        {
          "name": "",
          "type": "string"
        }
      ],
      "payable": false,
      "stateMutability": "view",
      "type": "function",
      "signature": "0x7d3a6796"
    }
  ],
  "bytecode": "0x60806040523480156200001157600080fd5b50620000b47395b9a26f931e8f554e666cce54c4993e7dccbb296040805190810160405280600281526020017f5031000000000000000000000000000000000000000000000000000000000000815250601064010a1fbd266040805190810160405280600481526020017f4a75687500000000000000000000000000000000000000000000000000000000815250620000ba640100000000026401000000009004565b62000490565b60006001600054019050620000ce6200037e565b8581604001819052508481606001818152505083816080018181525050828160a0018190525060008160c001818152505060008160e0018181525050600081610100018181525050600181908060018154018082558091505090600182039060005260206000209060090201600090919290919091506000820151816000015560208201518160010160006101000a81548173ffffffffffffffffffffffffffffffffffffffff021916908373ffffffffffffffffffffffffffffffffffffffff1602179055506040820151816002019080519060200190620001b3929190620003e1565b50606082015181600301556080820151816004015560a0820151816005019080519060200190620001e6929190620003e1565b5060c0820151816006015560e08201518160070155610100820151816008015550505060008081548092919060010191905055507f0899da80139b6d07ab8b9f20b8f98e822572db9a7b10d3e15aacab3a311aeb1d828888888888604051808781526020018673ffffffffffffffffffffffffffffffffffffffff1673ffffffffffffffffffffffffffffffffffffffff1681526020018060200185815260200184815260200180602001838103835287818151815260200191508051906020019080838360005b83811015620002cb578082015181840152602081019050620002ae565b50505050905090810190601f168015620002f95780820380516001836020036101000a031916815260200191505b50838103825284818151815260200191508051906020019080838360005b838110156200033457808201518184015260208101905062000317565b50505050905090810190601f168015620003625780820380516001836020036101000a031916815260200191505b509850505050505050505060405180910390a150505050505050565b6101206040519081016040528060008152602001600073ffffffffffffffffffffffffffffffffffffffff168152602001606081526020016000815260200160008152602001606081526020016000815260200160008152602001600081525090565b828054600181600116156101000203166002900490600052602060002090601f016020900481019282601f106200042457805160ff191683800117855562000455565b8280016001018555821562000455579182015b828111156200045457825182559160200191906001019062000437565b5b50905062000464919062000468565b5090565b6200048d91905b80821115620004895760008160009055506001016200046f565b5090565b90565b610cf880620004a06000396000f3fe60806040526004361061006d576000357c0100000000000000000000000000000000000000000000000000000000900463ffffffff1680637d3a67961461007257806393119a83146101d3578063a0303c4114610350578063c190665b1461037b578063c3d0f01f146103a6575b600080fd5b34801561007e57600080fd5b506100ab6004803603602081101561009557600080fd5b8101908080359060200190929190505050610539565b604051808673ffffffffffffffffffffffffffffffffffffffff1673ffffffffffffffffffffffffffffffffffffffff1681526020018060200185815260200184815260200180602001838103835287818151815260200191508051906020019080838360005b8381101561012d578082015181840152602081019050610112565b50505050905090810190601f16801561015a5780820380516001836020036101000a031916815260200191505b50838103825284818151815260200191508051906020019080838360005b83811015610193578082015181840152602081019050610178565b50505050905090810190601f1680156101c05780820380516001836020036101000a031916815260200191505b5097505050505050505060405180910390f35b3480156101df57600080fd5b5061020c600480360360208110156101f657600080fd5b8101908080359060200190929190505050610750565b604051808a81526020018973ffffffffffffffffffffffffffffffffffffffff1673ffffffffffffffffffffffffffffffffffffffff168152602001806020018881526020018781526020018060200186815260200185815260200184815260200183810383528a818151815260200191508051906020019080838360005b838110156102a657808201518184015260208101905061028b565b50505050905090810190601f1680156102d35780820380516001836020036101000a031916815260200191505b50838103825287818151815260200191508051906020019080838360005b8381101561030c5780820151818401526020810190506102f1565b50505050905090810190601f1680156103395780820380516001836020036101000a031916815260200191505b509b50505050505050505050505060405180910390f35b34801561035c57600080fd5b506103656108fd565b6040518082815260200191505060405180910390f35b34801561038757600080fd5b50610390610903565b6040518082815260200191505060405180910390f35b3480156103b257600080fd5b50610537600480360360a08110156103c957600080fd5b81019080803573ffffffffffffffffffffffffffffffffffffffff1690602001909291908035906020019064010000000081111561040657600080fd5b82018360208201111561041857600080fd5b8035906020019184600183028401116401000000008311171561043a57600080fd5b91908080601f016020809104026020016040519081016040528093929190818152602001838380828437600081840152601f19601f8201169050808301925050505050505091929192908035906020019092919080359060200190929190803590602001906401000000008111156104b157600080fd5b8201836020820111156104c357600080fd5b803590602001918460018302840111640100000000831117156104e557600080fd5b91908080601f016020809104026020016040519081016040528093929190818152602001838380828437600081840152601f19601f82011690508083019250505050505050919291929050505061090c565b005b60006060600080606060018681548110151561055157fe5b906000526020600020906009020160010160009054906101000a900473ffffffffffffffffffffffffffffffffffffffff1660018781548110151561059257fe5b90600052602060002090600902016002016001888154811015156105b257fe5b9060005260206000209060090201600301546001898154811015156105d357fe5b90600052602060002090600902016004015460018a8154811015156105f457fe5b9060005260206000209060090201600501838054600181600116156101000203166002900480601f01602080910402602001604051908101604052809291908181526020018280546001816001161561010002031660029004801561069a5780601f1061066f5761010080835404028352916020019161069a565b820191906000526020600020905b81548152906001019060200180831161067d57829003601f168201915b50505050509350808054600181600116156101000203166002900480601f0160208091040260200160405190810160405280929190818152602001828054600181600116156101000203166002900480156107365780601f1061070b57610100808354040283529160200191610736565b820191906000526020600020905b81548152906001019060200180831161071957829003601f168201915b505050505090509450945094509450945091939590929450565b60018181548110151561075f57fe5b90600052602060002090600902016000915090508060000154908060010160009054906101000a900473ffffffffffffffffffffffffffffffffffffffff1690806002018054600181600116156101000203166002900480601f0160208091040260200160405190810160405280929190818152602001828054600181600116156101000203166002900480156108375780601f1061080c57610100808354040283529160200191610837565b820191906000526020600020905b81548152906001019060200180831161081a57829003601f168201915b505050505090806003015490806004015490806005018054600181600116156101000203166002900480601f0160208091040260200160405190810160405280929190818152602001828054600181600116156101000203166002900480156108e15780601f106108b6576101008083540402835291602001916108e1565b820191906000526020600020905b8154815290600101906020018083116108c457829003601f168201915b5050505050908060060154908060070154908060080154905089565b60005481565b60008054905090565b6000600160005401905061091e610bc4565b8581604001819052508481606001818152505083816080018181525050828160a0018190525060008160c001818152505060008160e0018181525050600081610100018181525050600181908060018154018082558091505090600182039060005260206000209060090201600090919290919091506000820151816000015560208201518160010160006101000a81548173ffffffffffffffffffffffffffffffffffffffff021916908373ffffffffffffffffffffffffffffffffffffffff1602179055506040820151816002019080519060200190610a01929190610c27565b50606082015181600301556080820151816004015560a0820151816005019080519060200190610a32929190610c27565b5060c0820151816006015560e08201518160070155610100820151816008015550505060008081548092919060010191905055507f0899da80139b6d07ab8b9f20b8f98e822572db9a7b10d3e15aacab3a311aeb1d828888888888604051808781526020018673ffffffffffffffffffffffffffffffffffffffff1673ffffffffffffffffffffffffffffffffffffffff1681526020018060200185815260200184815260200180602001838103835287818151815260200191508051906020019080838360005b83811015610b15578082015181840152602081019050610afa565b50505050905090810190601f168015610b425780820380516001836020036101000a031916815260200191505b50838103825284818151815260200191508051906020019080838360005b83811015610b7b578082015181840152602081019050610b60565b50505050905090810190601f168015610ba85780820380516001836020036101000a031916815260200191505b509850505050505050505060405180910390a150505050505050565b6101206040519081016040528060008152602001600073ffffffffffffffffffffffffffffffffffffffff168152602001606081526020016000815260200160008152602001606081526020016000815260200160008152602001600081525090565b828054600181600116156101000203166002900490600052602060002090601f016020900481019282601f10610c6857805160ff1916838001178555610c96565b82800160010185558215610c96579182015b82811115610c95578251825591602001919060010190610c7a565b5b509050610ca39190610ca7565b5090565b610cc991905b80821115610cc5576000816000905550600101610cad565b5090565b9056fea165627a7a723058205ec564885700dcbd60f5afd4a2517d16322dc6dc372220c3f855351b6fbbda1f0029",
  "source": "pragma solidity 0.5.0;\r\n\r\ncontract Users {\r\n  uint public patientCount;\r\n  \r\n  struct Patient {\r\n  \tuint patientid;\r\n  \taddress patientAddress;\r\n  \tstring name;\r\n  \tuint age;\r\n  \tuint contact;\r\n  \tstring userAddress;\r\n  \tuint prescriptionCount;\r\n  \tuint receiptCount;\r\n  \tuint recordCount;\r\n  \t// Prescription[] prescriptions;\r\n  \t// Record[] records;\r\n  \t// Receipt[] receipts;\r\n  }\r\n\r\n  struct HealthCare {\r\n\taddress chainAddress;\r\n\tstring name;\r\n\tuint contact;\r\n\tstring healthCareAddress;\r\n\tuint patientsCount;\r\n\tPatient[] patients;\r\n  }\r\n\r\n  struct Record {\r\n  \tuint recordid;\r\n  \tstring disease;\r\n  \taddress chainAddress;\r\n  \tuint256 timestamp;\r\n  }\r\n\r\n  struct Receipt {\r\n  \tuint receiptid;\r\n  \taddress chainAddress;\r\n  \tuint256 timestamp;\r\n  \tuint totalcost;\r\n  }\r\n\r\n  struct Prescription {\r\n  \tuint prescriptionid;\r\n  \taddress healthCareAddress;\r\n  \tuint256 timestamp;\r\n  \tuint drugCount;\r\n  \tDrug[] drugs;\r\n  }\r\n\r\n  struct Drug {\r\n  \tuint drugid;\r\n  \tstring drugname;\r\n  \tuint count;\r\n  }\r\n\r\n  struct Pharmacy {\r\n  \taddress chainAddress;\r\n  \tstring name;\r\n  \tuint contact;\r\n  \tstring userAddress;\r\n  }\r\n\r\n  struct Insurance {\r\n  \taddress chainAddress;\r\n  \tstring name;\r\n  \tuint contact;\r\n  \tstring userAddress;\r\n  } \r\n\r\n  // struct User {\r\n  // \taddress chainAddress;\r\n  // \tbool patient;\r\n  // \tbool healthCare;\r\n  // \tbool pharmacy;\r\n  // \tbool insurance;\r\n  // }\r\n\r\n  event addPatient(\r\n  \tuint patientid,\r\n  \taddress patientAddress,\r\n  \tstring name,\r\n  \tuint age,\r\n  \tuint contact,\r\n  \tstring userAddress\r\n  );\r\n\r\n   event addPrescription(\r\n  \tuint prescriptionid,\r\n  \taddress healthCareAddress,\r\n  \tuint256 timestamp\r\n  );\r\n\r\n   event addRecord(\r\n   \tuint recordid,\r\n  \tstring disease,\r\n  \taddress chainAddress,\r\n  \tuint256 timestamp\r\n  );\r\n\r\n   event addReceipt(\r\n  \tuint receiptid,\r\n  \taddress chainAddress,\r\n  \tuint256 timestamp,\r\n  \tuint totalcost\r\n  );\r\n\r\n   event addDrug(\r\n  \tuint drugid,\r\n  \tstring drugname,\r\n  \tuint count\r\n  );\r\n\r\n  constructor() public {\r\n    setPatient(0x95b9a26f931E8f554e666CCe54c4993e7dcCbb29,\r\n      \"P1\",16,4464819494,\"Juhu\");\r\n  }\r\n\r\n   // mapping (uint => Patient) patients;\r\n   Patient[] public patients;\r\n\r\n  function setPatient(address _patientAddress,string memory _name,uint _age,uint _contact,string memory _userAddress) public {\r\n  \tuint id = patientCount+1;\r\n  \tPatient memory patient;\r\n  \t// patients[id] = patienty;\r\n    // patient.patientAddress = _patientAddress;\r\n    patient.name = _name;\r\n    patient.age = _age;\r\n    patient.contact = _contact;\r\n    patient.userAddress = _userAddress;\r\n    patient.prescriptionCount = 0;\r\n  \tpatient.receiptCount = 0;\r\n  \tpatient.recordCount = 0;\r\n    // patientsList.push(id) -1;\r\n    patients.push(patient);\r\n    patientCount++;\r\n    emit addPatient(id,_patientAddress,_name,_age,_contact,_userAddress);\r\n  }\r\n\r\n  function getPatientCount() view public returns(uint) {\r\n    return (patientCount);\r\n  }\r\n  \r\n  function getPatient(uint _id) view public returns (address,string memory,uint,uint,string memory) {\r\n  \treturn(patients[_id].patientAddress,patients[_id].name,patients[_id].age,patients[_id].contact,patients[_id].userAddress);\r\n  }\r\n\r\n  // function setPrescription(uint _patientid,address _healthCareAddress,uint256 _timestamp) public {\r\n  // \tPrescription memory temp;\r\n  // \tuint256 id = patients[_patientid].prescriptionCount;\r\n  // \ttemp.prescriptionid = id;\r\n  // \ttemp.healthCareAddress = _healthCareAddress;\r\n  // \ttemp.timestamp = _timestamp;\r\n  // \ttemp.drugCount = 0;\r\n\r\n  // \tpatients[_patientid].prescriptions.push(temp);\r\n  // \tpatients[_patientid].prescriptionCount++;\r\n  // \temit addPrescription(id,_healthCareAddress,_timestamp);\r\n  // }\r\n\r\n  // function getPrescription(uint _patientid,uint _prescriptionid) view public returns (uint,address,uint256,uint256) {\r\n  // \treturn(patients[_patientid].prescriptions[_prescriptionid].prescriptionid,\r\n  // \t\tpatients[_patientid].prescriptions[_prescriptionid].healthCareAddress,\r\n  // \t\tpatients[_patientid].prescriptions[_prescriptionid].drugCount,\r\n  // \t\tpatients[_patientid].prescriptions[_prescriptionid].timestamp);\r\n  // }\r\n\r\n  // function setReceipt(uint _patientid,address _chainAddress,uint256 _timestamp,uint _totalcost) public {\r\n  // \tReceipt memory temp;\r\n  // \tuint256 id = patients[_patientid].receiptCount;\r\n  // \ttemp.receiptid = id;\r\n  // \ttemp.chainAddress = _chainAddress;\r\n  // \ttemp.timestamp = _timestamp;\r\n  // \ttemp.totalcost = _totalcost;\r\n\r\n  // \tpatients[_patientid].receipts.push(temp);\r\n  // \tpatients[_patientid].receiptCount++;\r\n  // \temit addReceipt(id,_chainAddress,_timestamp,_totalcost);\r\n  // }\r\n\r\n  // function getReceipt(uint _patientid,uint _receiptid) view public returns (uint,address,uint256,uint256) {\r\n  // \treturn(patients[_patientid].receipts[_receiptid].receiptid,\r\n  // \t\tpatients[_patientid].receipts[_receiptid].chainAddress,\r\n  // \t\tpatients[_patientid].receipts[_receiptid].timestamp,\r\n  // \t\tpatients[_patientid].receipts[_receiptid].totalcost);\r\n  // }\r\n\r\n  // function setRecord(uint _patientid,address _chainAddress,uint256 _timestamp,string   _disease) public {\r\n  // \tRecord memory temp;\r\n  // \tuint256 id = patients[_patientid].recordCount;\r\n  // \ttemp.recordid = id;\r\n  // \ttemp.chainAddress = _chainAddress;\r\n  // \ttemp.disease = _disease;\r\n  // \ttemp.timestamp = _timestamp;\r\n\r\n  // \tpatients[_patientid].records.push(temp);\r\n  // \tpatients[_patientid].recordCount++;\r\n  // \temit addRecord(id,_disease,_chainAddress,_timestamp);\r\n  // }\r\n\r\n  // function getRecord(uint _patientid,uint _recordid) view public returns (uint,address,string  ,uint256) {\r\n  // \treturn(patients[_patientid].records[_recordid].recordid,\r\n  // \t\tpatients[_patientid].records[_recordid].chainAddress,\r\n  // \t\tpatients[_patientid].records[_recordid].disease,\r\n  // \t\tpatients[_patientid].receipts[_recordid].timestamp);\r\n  // }\r\n\r\n  // function setDrug(uint _patientid,uint _prescriptionid, string   _drugname,uint _count) public {\r\n  // \tDrug memory temp;\r\n  // \tuint256 id = patients[_patientid].prescriptions[_prescriptionid].drugCount;\r\n  // \ttemp.drugid = id;\r\n  // \ttemp.drugname = _drugname;\r\n  // \ttemp.count = _count;\r\n\r\n  // \tpatients[_patientid].prescriptions[_prescriptionid].drugs.push(temp);\r\n  // \tpatients[_patientid].prescriptions[_prescriptionid].drugCount++;\r\n  // \temit addDrug(id,_drugname,_count);\r\n  // }\r\n\r\n  // function getDrug(uint _patientid,uint _prescriptionid,uint _receiptid,uint _drugid) view public returns (uint,string  ,uint256) {\r\n  // \treturn(patients[_patientid].prescriptions[_prescriptionid].drugs[_drugid].drugid,\r\n  // \t\tpatients[_patientid].prescriptions[_prescriptionid].drugs[_drugid].drugname,\r\n  // \t\tpatients[_patientid].prescriptions[_prescriptionid].drugs[_drugid].count);\r\n  // }\r\n\r\n}\r\n",
  "sourcePath": "C:/Users/Keval/Desktop/HealthChain2/contracts/Users.sol",
  "compiler": {
    "name": "solc",
    "version": "0.5.0+commit.1d4f565a.Emscripten.clang"
  },
  "schemaVersion": "3.0.0",
  "updatedAt": "2019-01-05T17:37:15.041Z",
  "devdoc": {
    "methods": {}
  },
  "userdoc": {
    "methods": {}
  }
}